:02000000BD2A17
:10000800FF00030E8301B9000A08B8008A017008CE
:10001800A5007108A4007208A3007308A200740860
:10002800A1008B1C2F280F30870506182A280630B8
:100038008504F430BD000130BE00AB22F9308505DF
:10004800F430BD000130BE00AB22192885140330FE
:100058008505FD308B050B1D3928AC0A0319AD0A3F
:10006800FB308B05EC3081005F280C1D5D282708CC
:10007800031D452896012F089500A7010930970010
:1000880058282F08403CF3000030031C013E9C3CDC
:10009800F4007408F000F1017008960073089500E8
:1000A800083097000130A7008F018E01FB308C05C6
:1000B8005F28F0308B002508F0002408F1002308A1
:1000C800F2002208F3002108F40038088A00390EEB
:0800D8008300FF0E7F0E0900FA
:0E00E000F201F101F001F801F3010030080017
:1000EE007B15FB1F81280130F300F201F101F001B5
:0800FE00FA0DF20CFF300800BE
:08010600FA1FF213003008009B
:06010E00FB15FF300800A4
:10011400A0017208031D9F287108F2007008F10005
:10012400F001A0157208031D9F287108F200F10167
:10013400A011201672080319AD282008F302031D2C
:10014400031CB1280310F21BB528F00DF10DF20DBC
:10015400F30BA528B1280130FC007020B828023028
:0E016400FC007720B8280430FC00832008003F
:100172007B14FB1FC428F201FA1FFF30F200F100CA
:0A018200F000FA0DF20CFF30080047
:10018C00FB14FB1FD028FF30F300F200F100F0004D
:08019C00FA0DF20CFF3008001F
:0E01A400831203132B088A002A088200080029
:1001B200831203137408003A031DF4287508003AE9
:1001C200031DF4287608003A031DF4287708003A44
:1001D200031DF428FF30F000FF30F1007F30F20001
:1001E200FF30F3008F298312031377080319832941
:1001F200730803198629720876068039FA00F21705
:10020200F617A0017208F8007108FC007008FD00E2
:100212007408FD027508031C750FFC027608031CA6
:10022200760FF802F801FC01FD01031C1F290310DF
:10023200F20CF10CF00CF80C0130A0007708F3027C
:10024200031C29297E302007F307031889292E2948
:100252007E302007F307031C8C291830FA07FD0DA6
:10026200FC0DF80DF00DF10DF20DA00D7408F00269
:100272007508031C750FF1027608031C760FF20253
:10028200760DA004201C47297D1452297408F0071A
:1002920075080318750FF10776080318760AF20736
:1002A2007D10FA031F307A05031D30297B1B7D1C4C
:1002B20079290310F00DF10DF20DA00D7408F00272
:1002C2007508031C750FF1027608031C760FF20203
:1002D200760D20040139FD070318FC0A0319F80AF8
:1002E200031D7929F80CFC0CFD0CF30A031989296A
:1002F200FA1FF8137808F2007C08F1007D08F0007C
:1003020000308E29013087208E29023070208E29FC
:0E0312000430C6208E29083077200000080035
:10032000831203137008F8007108F000F101F20164
:10033000F301FB01FC019630F300FA017008F100B3
:0C0340007808F000F801F2018A200800A3
:10034C0083120313FB01FC01FA0173080319E5295D
:10035C00F2178E30F302F31BB6290319B629E829DC
:10036C00F309F30A08307302031CCB29F300F10DD7
:10037C007208F100F20108307302031CCB29F10D55
:10038C00F1017308031D0310D32973080319D32932
:10039C000310F20CF10CF30BCE297B1B711CDD2925
:1003AC00031CDD29F10A0319F20AF21BF429FA1FC6
:1003BC00F729F209F109F10A0319F20AF729F201F6
:1003CC00F101F7297B14FB1FFA29F201FA1FFA2914
:1003DC00FF30F200F100FA0DF20CFA290130FC00AA
:1003EC00FC290030FC00FC29FF30FC00FC08031940
:0E03FC00002AB9207108F0007208F100080014
:0A040A00503083120313870008002E
:0A04140090308312031387000800E4
:0A041E00A0308312031387000800CA
:10042800831203131F151F1D1A2A172A1E08F1000D
:0E043800F00183161E08F0040030F1040800E5
:1004460083120313F801F9011030FC00710DF80D49
:10045600F90D7408F8027508031C750FF9020318E4
:100466003B2A7408F80775080318750FF907031077
:0A047600F00DF10DFC0B292A08001F
:1004800083120313BB01BC013A08003A031D4D2A35
:100490000230BB000130BC005A2A3A08013A031D61
:1004A000562A0830BB000430BC005A2A2030BB005A
:1004B0001030BC003B0888040630FD00FD0B5E2AAE
:1004C00000003B09F000700888053C080805F000B2
:1004D000031D6B2A652A8F018E01013090003C08B4
:1004E0000805F0000319752A6F2A90010F08F10022
:1004F000F0010E08F0040030F1049021AE30F40059
:100500004730F5006B30F6008430F700D920A62183
:020510000800E1
:10051200D2208A110A128000840AAA0A0319AB0A9D
:08052200F003031D892A080003
:10052A00831203138601073092000C309D00FA30C3
:0C053A00831692007D3083129B000800A5
:100546004130831203139F00CE3083169F000800AC
:10055600831203133D08B0003E08B100AC01AD01A3
:100566003108003C031DB92A30082E020318BC2AA4
:04057600B32A08009C
:10057A00013083120313A60001308316850001306F
:10058A008600870115308800890183128514FB30A3
:10059A008505803083168100F0308B00A3229522D6
:1005AA008F018E010130A7000830970001309000BA
:1005BA0083160C15073083129600D0309500BA01C5
:1005CA0040220A30F4000030F50023227008A80007
:1005DA007108A9000130BA0040220A30F400003044
:1005EA00F50023227008B4007108B5000230BA0081
:1005FA0040220A30F4000030F50023227008B200CD
:10060A007108B30000302902031D0D2B02302802A5
:10061A00031C112B0A22262B00303502031D172B2F
:10062A0002303402031C1B2B0522262B0030330216
:10063A00031D212B02303202031C252B0F22262BED
:10064A000522142270088312B6007108B7007108D7
:10065A00033C031D322B7008323C03183A2BA601C7
:10066A0001308505E830AF003F2B0130A600851424
:08067A001C30AF00E42A402B04
:02400E004A2F37
:00000001FF
