:02000000D62AFE
:10000800FF00030E8301B8000A08B7008A017008D0
:10001800A5007108A4007208A3007308A200740860
:10002800A1000B1D1E28AA0A0319AB0AFB308B0579
:10003800EC3081008B1C39280F30870506183328CF
:1000480006308504F430BC000130BD00C422F9300C
:100058008505F430BC000130BD00C4222228851477
:1000680003308505FD308B055F280C1D5D282908A8
:10007800031D4528960136089500A9010930970007
:1000880058283608403CF3000030031C013E9C3CD5
:10009800F4007408F000F1017008960073089500E8
:1000A800083097000130A9008F018E01FB308C05C4
:1000B8005F28F0308B002508F0002408F1002308A1
:1000C800F2002208F3002108F40037088A00380EED
:0800D8008300FF0E7F0E0900FA
:0E00E000F201F101F001F801F3010030080017
:1000EE007B15FB1F81280130F300F201F101F001B5
:0800FE00FA0DF20CFF300800BE
:08010600FA1FF213003008009B
:10010E00A0017208031D9C287108F2007008F1000E
:10011E00F001A0157208031D9C287108F200F10170
:10012E00A011201672080319AA282008F302031D35
:10013E00031CAE280310F21BB228F00DF10DF20DC8
:10014E00F30BA228AE280130FC007020B528023037
:0E015E00FC007720B5280430FC008320080048
:10016C007B14FB1FC128F201FA1FFF30F200F100D3
:0A017C00F000FA0DF20CFF3008004D
:10018600FB14FB1FCD28FF30F300F200F100F00056
:08019600FA0DF20CFF30080025
:06019E00FB15FF30080014
:1001A40083120313FB01FC01FA01730803191129DB
:1001B400F2178E30F302F31BE2280319E228142904
:1001C400F309F30A08307302031CF728F300F10D56
:1001D4007208F100F20108307302031CF728F10DD4
:1001E400F1017308031D0310FF2873080319FF2886
:1001F4000310F20CF10CF30BFA287B1B711C092978
:10020400031C0929F10A0319F20AF21B2029FA1F17
:100214002329F209F109F10A0319F20A2329F20147
:10022400F10123297B14FB1F2629F201FA1F262939
:10023400FF30F200F100FA0DF20C26290130FC0027
:1002440028290030FC002829FF30FC00FC08031991
:0E0254002C29B6207108F0007208F100080095
:1002620083120313F1010A30710203183C290000C2
:080272000000F10A3429080024
:10027A00831203137408003A031D58297508003ABB
:10028A00031D58297608003A031D58297708003AB1
:10029A00031D5829FF30F000FF30F1007F30F200D3
:1002AA00FF30F300F3298312031377080319E729B0
:1002BA0073080319EA29720876068039FA00F217D8
:1002CA00F617A0017208F8007108FC007008FD001A
:1002DA007408FD027508031C750FFC027608031CDE
:1002EA00760FF802F801FC01FD01031C83290310B3
:1002FA00F20CF10CF00CF80C0130A0007708F302B4
:10030A00031C8D297E302007F3070318ED29922953
:10031A007E302007F307031CF0291830FA07FD0D79
:10032A00FC0DF80DF00DF10DF20DA00D7408F002A0
:10033A007508031C750FF1027608031C760FF2028A
:10034A00760DA004201CAB297D14B6297408F00789
:10035A0075080318750FF10776080318760AF2076D
:10036A007D10FA031F307A05031D94297B1B7D1C1F
:10037A00DD290310F00DF10DF20DA00D7408F00245
:10038A007508031C750FF1027608031C760FF2023A
:10039A00760D20040139FD070318FC0A0319F80A2F
:1003AA00031DDD29F80CFC0CFD0CF30A0319ED29D9
:1003BA00FA1FF8137808F2007C08F1007D08F000B3
:1003CA000030F2290130CF20F22902307020F229C0
:0E03DA000430C320F22908307720000008000C
:0E03E8008312031328088A00270882000800E9
:1003F600831203137008F8007108F000F101F2018E
:10040600F301FB01FC019630F300FA017008F100DC
:0C0416007808F000F801F20187200800CF
:0A0422005030831203138700080016
:0A042C00A0308312031387000800BC
:10043600831203131F151F1D212A1E2A1E08F100F1
:0E044600F00183161E08F0040030F1040800D7
:0A04540090308312031387000800A4
:10045E0083120313F801F9011030FC00710DF80D31
:10046E00F90D7408F8027508031C750FF9020318CC
:10047E00472A7408F80775080318750FF907031053
:0A048E00F00DF10DFC0B352A0800FB
:1004980007308312031392000C309D00FA30831644
:0A04A80092007D3083129B000800D3
:1004B200831203138F018E010130A90008309700C7
:1004C2000130900083160C15073083129600D0304D
:0404D2009500080089
:1004D600F4218A110A128000840AA70A0319A80ABD
:0804E600F003031D6B2A08005E
:1004EE0083120313BA01BB013908003A031D842A93
:1004FE000230BA000130BB00912A3908013A031DBF
:10050E008D2A0830BA000430BB00912A2030BA0080
:10051E001030BB003A08880431213A09F000700807
:10052E0088053B080805F000031D9E2A982A8F01B6
:10053E008E01013090003B080805F0000319A82A2F
:10054E00A22A90010F08F100F0010E08F00400300D
:10055E00F104FB21AE30F4004730F5006B30F600AD
:0A056E008430F7003D21D220080080
:100578004130831203139F00CE3083169F0008007A
:10058800831203133C08B4003D08B500AA01AB016F
:1005980035082B02031DD22A34082A020318D52A4B
:0405A800CC2A080051
:1005AC00013083120313A60001308316850001303D
:1005BC008600870115308800890183128514FB3071
:1005CC008505803083168100F0308B00BC224C22D4
:1005DC005922B90177220A30F4000030F5002F229D
:1005EC007008B0007108B1000130B90077220A30F0
:1005FC00F4000030F5002F227008AE007108AF0037
:10060C000230B90077220A30F4000030F5002F22B6
:10061C007008AC007108AD0000303102031D182BBE
:10062C0002303002031C1C2B2A22312B00302F02EB
:10063C00031D222B02302E02031C262B1122312BE0
:10064C0000302D02031D2C2B02302C02031C302BEE
:10065C001622312B11221B2270088312B200710852
:10066C00B3007108033C031D3D2B7008323C03188A
:10067C00452BA60101308505E830B6004A2B013028
:0C068C00A60085141C30B600EF2A4B2B92
:02400E004A2F37
:00000001FF
